{
  "contractName": "LandRegistry",
  "abi": [
    {
      "inputs": [],
      "stateMutability": "nonpayable",
      "type": "constructor"
    },
    {
      "anonymous": false,
      "inputs": [
        {
          "indexed": true,
          "internalType": "uint256",
          "name": "landId",
          "type": "uint256"
        },
        {
          "indexed": false,
          "internalType": "string",
          "name": "lrNumber",
          "type": "string"
        },
        {
          "indexed": false,
          "internalType": "address",
          "name": "owner",
          "type": "address"
        },
        {
          "indexed": false,
          "internalType": "string",
          "name": "ipfsHash",
          "type": "string"
        }
      ],
      "name": "LandRegistered",
      "type": "event"
    },
    {
      "anonymous": false,
      "inputs": [
        {
          "indexed": true,
          "internalType": "uint256",
          "name": "landId",
          "type": "uint256"
        },
        {
          "indexed": true,
          "internalType": "address",
          "name": "from",
          "type": "address"
        },
        {
          "indexed": true,
          "internalType": "address",
          "name": "to",
          "type": "address"
        },
        {
          "indexed": false,
          "internalType": "string",
          "name": "mpesaRef",
          "type": "string"
        }
      ],
      "name": "OwnershipTransferred",
      "type": "event"
    },
    {
      "inputs": [],
      "name": "admin",
      "outputs": [
        {
          "internalType": "address",
          "name": "",
          "type": "address"
        }
      ],
      "stateMutability": "view",
      "type": "function",
      "constant": true
    },
    {
      "inputs": [],
      "name": "landCount",
      "outputs": [
        {
          "internalType": "uint256",
          "name": "",
          "type": "uint256"
        }
      ],
      "stateMutability": "view",
      "type": "function",
      "constant": true
    },
    {
      "inputs": [],
      "name": "landOfficer",
      "outputs": [
        {
          "internalType": "address",
          "name": "",
          "type": "address"
        }
      ],
      "stateMutability": "view",
      "type": "function",
      "constant": true
    },
    {
      "inputs": [
        {
          "internalType": "uint256",
          "name": "",
          "type": "uint256"
        }
      ],
      "name": "lands",
      "outputs": [
        {
          "internalType": "uint256",
          "name": "id",
          "type": "uint256"
        },
        {
          "internalType": "string",
          "name": "lrNumber",
          "type": "string"
        },
        {
          "internalType": "address",
          "name": "owner",
          "type": "address"
        },
        {
          "internalType": "string",
          "name": "ipfsDocHash",
          "type": "string"
        },
        {
          "internalType": "bool",
          "name": "isVerified",
          "type": "bool"
        },
        {
          "internalType": "uint256",
          "name": "createdAt",
          "type": "uint256"
        }
      ],
      "stateMutability": "view",
      "type": "function",
      "constant": true
    },
    {
      "inputs": [
        {
          "internalType": "string",
          "name": "",
          "type": "string"
        }
      ],
      "name": "lrToId",
      "outputs": [
        {
          "internalType": "uint256",
          "name": "",
          "type": "uint256"
        }
      ],
      "stateMutability": "view",
      "type": "function",
      "constant": true
    },
    {
      "inputs": [
        {
          "internalType": "uint256",
          "name": "",
          "type": "uint256"
        },
        {
          "internalType": "uint256",
          "name": "",
          "type": "uint256"
        }
      ],
      "name": "ownershipHistory",
      "outputs": [
        {
          "internalType": "address",
          "name": "from",
          "type": "address"
        },
        {
          "internalType": "address",
          "name": "to",
          "type": "address"
        },
        {
          "internalType": "uint256",
          "name": "timestamp",
          "type": "uint256"
        },
        {
          "internalType": "string",
          "name": "mpesaRef",
          "type": "string"
        }
      ],
      "stateMutability": "view",
      "type": "function",
      "constant": true
    },
    {
      "inputs": [
        {
          "internalType": "string",
          "name": "",
          "type": "string"
        }
      ],
      "name": "registeredLR",
      "outputs": [
        {
          "internalType": "bool",
          "name": "",
          "type": "bool"
        }
      ],
      "stateMutability": "view",
      "type": "function",
      "constant": true
    },
    {
      "inputs": [
        {
          "internalType": "address",
          "name": "_officer",
          "type": "address"
        }
      ],
      "name": "setOfficer",
      "outputs": [],
      "stateMutability": "nonpayable",
      "type": "function"
    },
    {
      "inputs": [
        {
          "internalType": "address",
          "name": "_owner",
          "type": "address"
        },
        {
          "internalType": "string",
          "name": "_lrNumber",
          "type": "string"
        },
        {
          "internalType": "string",
          "name": "_ipfsHash",
          "type": "string"
        }
      ],
      "name": "registerInitialLand",
      "outputs": [
        {
          "internalType": "uint256",
          "name": "",
          "type": "uint256"
        }
      ],
      "stateMutability": "nonpayable",
      "type": "function"
    },
    {
      "inputs": [
        {
          "internalType": "uint256",
          "name": "_landId",
          "type": "uint256"
        },
        {
          "internalType": "address",
          "name": "_newOwner",
          "type": "address"
        },
        {
          "internalType": "string",
          "name": "_mpesaRef",
          "type": "string"
        }
      ],
      "name": "transferOwnership",
      "outputs": [],
      "stateMutability": "nonpayable",
      "type": "function"
    },
    {
      "inputs": [
        {
          "internalType": "uint256",
          "name": "_id",
          "type": "uint256"
        }
      ],
      "name": "getLand",
      "outputs": [
        {
          "components": [
            {
              "internalType": "uint256",
              "name": "id",
              "type": "uint256"
            },
            {
              "internalType": "string",
              "name": "lrNumber",
              "type": "string"
            },
            {
              "internalType": "address",
              "name": "owner",
              "type": "address"
            },
            {
              "internalType": "string",
              "name": "ipfsDocHash",
              "type": "string"
            },
            {
              "internalType": "bool",
              "name": "isVerified",
              "type": "bool"
            },
            {
              "internalType": "uint256",
              "name": "createdAt",
              "type": "uint256"
            }
          ],
          "internalType": "struct LandRegistry.LandParcel",
          "name": "",
          "type": "tuple"
        }
      ],
      "stateMutability": "view",
      "type": "function",
      "constant": true
    },
    {
      "inputs": [
        {
          "internalType": "string",
          "name": "_lr",
          "type": "string"
        }
      ],
      "name": "getLandByLR",
      "outputs": [
        {
          "components": [
            {
              "internalType": "uint256",
              "name": "id",
              "type": "uint256"
            },
            {
              "internalType": "string",
              "name": "lrNumber",
              "type": "string"
            },
            {
              "internalType": "address",
              "name": "owner",
              "type": "address"
            },
            {
              "internalType": "string",
              "name": "ipfsDocHash",
              "type": "string"
            },
            {
              "internalType": "bool",
              "name": "isVerified",
              "type": "bool"
            },
            {
              "internalType": "uint256",
              "name": "createdAt",
              "type": "uint256"
            }
          ],
          "internalType": "struct LandRegistry.LandParcel",
          "name": "",
          "type": "tuple"
        }
      ],
      "stateMutability": "view",
      "type": "function",
      "constant": true
    },
    {
      "inputs": [
        {
          "internalType": "uint256",
          "name": "_id",
          "type": "uint256"
        }
      ],
      "name": "getOwnershipHistory",
      "outputs": [
        {
          "components": [
            {
              "internalType": "address",
              "name": "from",
              "type": "address"
            },
            {
              "internalType": "address",
              "name": "to",
              "type": "address"
            },
            {
              "internalType": "uint256",
              "name": "timestamp",
              "type": "uint256"
            },
            {
              "internalType": "string",
              "name": "mpesaRef",
              "type": "string"
            }
          ],
          "internalType": "struct LandRegistry.OwnershipRecord[]",
          "name": "",
          "type": "tuple[]"
        }
      ],
      "stateMutability": "view",
      "type": "function",
      "constant": true
    }
  ],
  "bytecode": "0x608060405234801561001057600080fd5b50600180546001600160a01b0319908116339081179092556000805490911690911790556114ac806100436000396000f3fe608060405234801561001057600080fd5b50600436106100cf5760003560e01c8063e261f1e51161008c578063f1dbaccb11610066578063f1dbaccb14610214578063f851a44014610234578063fcb7b83c14610247578063fe8cb5821461025a57600080fd5b8063e261f1e5146101a4578063e38cfca1146101c9578063f02dd53f146101f457600080fd5b80632c7c0a1d146100d45780634dc73b7f146100e9578063716256411461012c57806394e5164c1461013f578063c9cf2adc1461016a578063d7bce6581461018d575b600080fd5b6100e76100e2366004610eb5565b61026d565b005b6101176100f7366004610f7a565b805160208183018101805160068252928201919093012091525460ff1681565b60405190151581526020015b60405180910390f35b6100e761013a366004610fb7565b610339565b600054610152906001600160a01b031681565b6040516001600160a01b039091168152602001610123565b61017d61017836600461100e565b610538565b6040516101239493929190611080565b61019660025481565b604051908152602001610123565b6101b76101b23660046110bd565b610617565b604051610123969594939291906110d6565b6101966101d7366004610f7a565b805160208183018101805160058252928201919093012091525481565b6102076102023660046110bd565b61076f565b6040516101239190611126565b6102276102223660046110bd565b6108fa565b60405161012391906111a2565b600154610152906001600160a01b031681565b610207610255366004610f7a565b610a2c565b610196610268366004611239565b610bd3565b6001546001600160a01b031633146102c15760405162461bcd60e51b815260206004820152601260248201527113db9b1e4810591b5a5b88185b1b1bddd95960721b60448201526064015b60405180910390fd5b6001600160a01b0381166103175760405162461bcd60e51b815260206004820152601760248201527f496e76616c6964206f666669636572206164647265737300000000000000000060448201526064016102b8565b600080546001600160a01b0319166001600160a01b0392909216919091179055565b6000546001600160a01b0316331461038f5760405162461bcd60e51b815260206004820152601960248201527813db9b1e4813185b990813d9999a58d95c88185b1b1bddd959603a1b60448201526064016102b8565b600083815260036020526040812080549091036103e45760405162461bcd60e51b815260206004820152601360248201527213185b9908191bd95cc81b9bdd08195e1a5cdd606a1b60448201526064016102b8565b6001600160a01b03831661042e5760405162461bcd60e51b815260206004820152601160248201527024b73b30b634b2103732bb9037bbb732b960791b60448201526064016102b8565b600280820154600086815260046020818152604080842081516080810183526001600160a01b039687168082528b881682860190815242948301948552606083018c8152845460018181018755958a529690982083519690970290960180549589166001600160a01b0319968716178155955192860180549390981692909416919091179095555194820194909455905160038201906104ce908261132c565b5050506002820180546001600160a01b0319166001600160a01b03868116918217909255604051909183169087907fc6f76974206718b625c9faba8b5ae1931f1e7a6620c23458a74554aeffef1360906105299088906113ec565b60405180910390a45050505050565b6004602052816000526040600020818154811061055457600080fd5b600091825260209091206004909102018054600182015460028301546003840180546001600160a01b0394851697509390921694509291610594906112a3565b80601f01602080910402602001604051908101604052809291908181526020018280546105c0906112a3565b801561060d5780601f106105e25761010080835404028352916020019161060d565b820191906000526020600020905b8154815290600101906020018083116105f057829003601f168201915b5050505050905084565b60036020526000908152604090208054600182018054919291610639906112a3565b80601f0160208091040260200160405190810160405280929190818152602001828054610665906112a3565b80156106b25780601f10610687576101008083540402835291602001916106b2565b820191906000526020600020905b81548152906001019060200180831161069557829003601f168201915b505050600284015460038501805494956001600160a01b039092169491935091506106dc906112a3565b80601f0160208091040260200160405190810160405280929190818152602001828054610708906112a3565b80156107555780601f1061072a57610100808354040283529160200191610755565b820191906000526020600020905b81548152906001019060200180831161073857829003601f168201915b505050506004830154600590930154919260ff1691905086565b610777610e58565b600360008381526020019081526020016000206040518060c0016040529081600082015481526020016001820180546107af906112a3565b80601f01602080910402602001604051908101604052809291908181526020018280546107db906112a3565b80156108285780601f106107fd57610100808354040283529160200191610828565b820191906000526020600020905b81548152906001019060200180831161080b57829003601f168201915b505050918352505060028201546001600160a01b03166020820152600382018054604090920191610858906112a3565b80601f0160208091040260200160405190810160405280929190818152602001828054610884906112a3565b80156108d15780601f106108a6576101008083540402835291602001916108d1565b820191906000526020600020905b8154815290600101906020018083116108b457829003601f168201915b5050509183525050600482015460ff161515602082015260059091015460409091015292915050565b606060046000838152602001908152602001600020805480602002602001604051908101604052809291908181526020016000905b82821015610a21576000848152602090819020604080516080810182526004860290920180546001600160a01b03908116845260018201541693830193909352600283015490820152600382018054919291606084019190610990906112a3565b80601f01602080910402602001604051908101604052809291908181526020018280546109bc906112a3565b8015610a095780601f106109de57610100808354040283529160200191610a09565b820191906000526020600020905b8154815290600101906020018083116109ec57829003601f168201915b5050505050815250508152602001906001019061092f565b505050509050919050565b610a34610e58565b6000600583604051610a4691906113ff565b9081526040805191829003602090810183205460008181526003835283902060c08501909352825484526001830180549195509184019190610a87906112a3565b80601f0160208091040260200160405190810160405280929190818152602001828054610ab3906112a3565b8015610b005780601f10610ad557610100808354040283529160200191610b00565b820191906000526020600020905b815481529060010190602001808311610ae357829003601f168201915b505050918352505060028201546001600160a01b03166020820152600382018054604090920191610b30906112a3565b80601f0160208091040260200160405190810160405280929190818152602001828054610b5c906112a3565b8015610ba95780601f10610b7e57610100808354040283529160200191610ba9565b820191906000526020600020905b815481529060010190602001808311610b8c57829003601f168201915b5050509183525050600482015460ff16151560208201526005909101546040909101529392505050565b600080546001600160a01b03163314610c2a5760405162461bcd60e51b815260206004820152601960248201527813db9b1e4813185b990813d9999a58d95c88185b1b1bddd959603a1b60448201526064016102b8565b600683604051610c3a91906113ff565b9081526040519081900360200190205460ff1615610c9a5760405162461bcd60e51b815260206004820152601c60248201527f4c616e6420616c726561647920657869737473206f6e2d636861696e0000000060448201526064016102b8565b6001600160a01b038416610ce05760405162461bcd60e51b815260206004820152600d60248201526c24b73b30b634b21037bbb732b960991b60448201526064016102b8565b60028054906000610cf08361141b565b90915550506040805160c08101825260025480825260208083018781526001600160a01b03891684860152606084018790526001608085018190524260a0860152600093845260039092529390912082518155925191929190820190610d56908261132c565b5060408201516002820180546001600160a01b0319166001600160a01b0390921691909117905560608201516003820190610d91908261132c565b50608082015160048201805460ff191691151591909117905560a090910151600590910155604051600190600690610dca9086906113ff565b908152604051908190036020018120805492151560ff199093169290921790915560025490600590610dfd9086906113ff565b9081526020016040518091039020819055506002547fcb7c53eba11a9a2b1e2c18089275a5cad35cfa23b1fffb1419326cad0e72b02a848685604051610e4593929190611442565b60405180910390a2506002549392505050565b6040518060c00160405280600081526020016060815260200160006001600160a01b0316815260200160608152602001600015158152602001600081525090565b80356001600160a01b0381168114610eb057600080fd5b919050565b600060208284031215610ec757600080fd5b610ed082610e99565b9392505050565b634e487b7160e01b600052604160045260246000fd5b600082601f830112610efe57600080fd5b813567ffffffffffffffff80821115610f1957610f19610ed7565b604051601f8301601f19908116603f01168101908282118183101715610f4157610f41610ed7565b81604052838152866020858801011115610f5a57600080fd5b836020870160208301376000602085830101528094505050505092915050565b600060208284031215610f8c57600080fd5b813567ffffffffffffffff811115610fa357600080fd5b610faf84828501610eed565b949350505050565b600080600060608486031215610fcc57600080fd5b83359250610fdc60208501610e99565b9150604084013567ffffffffffffffff811115610ff857600080fd5b61100486828701610eed565b9150509250925092565b6000806040838503121561102157600080fd5b50508035926020909101359150565b60005b8381101561104b578181015183820152602001611033565b50506000910152565b6000815180845261106c816020860160208601611030565b601f01601f19169290920160200192915050565b6001600160a01b03858116825284166020820152604081018390526080606082018190526000906110b390830184611054565b9695505050505050565b6000602082840312156110cf57600080fd5b5035919050565b86815260c0602082015260006110ef60c0830188611054565b6001600160a01b038716604084015282810360608401526111108187611054565b9415156080840152505060a00152949350505050565b60208152815160208201526000602083015160c0604084015261114c60e0840182611054565b60408501516001600160a01b0316606085810191909152850151848203601f1901608086015290915061117f8282611054565b9150506080840151151560a084015260a084015160c08401528091505092915050565b60006020808301818452808551808352604092508286019150828160051b87010184880160005b8381101561122b57888303603f19018552815180516001600160a01b039081168552888201511688850152868101518785015260609081015160809185018290529061121781860183611054565b9689019694505050908601906001016111c9565b509098975050505050505050565b60008060006060848603121561124e57600080fd5b61125784610e99565b9250602084013567ffffffffffffffff8082111561127457600080fd5b61128087838801610eed565b9350604086013591508082111561129657600080fd5b5061100486828701610eed565b600181811c908216806112b757607f821691505b6020821081036112d757634e487b7160e01b600052602260045260246000fd5b50919050565b601f82111561132757600081815260208120601f850160051c810160208610156113045750805b601f850160051c820191505b8181101561132357828155600101611310565b5050505b505050565b815167ffffffffffffffff81111561134657611346610ed7565b61135a8161135484546112a3565b846112dd565b602080601f83116001811461138f57600084156113775750858301515b600019600386901b1c1916600185901b178555611323565b600085815260208120601f198616915b828110156113be5788860151825594840194600190910190840161139f565b50858210156113dc5787850151600019600388901b60f8161c191681555b5050505050600190811b01905550565b602081526000610ed06020830184611054565b60008251611411818460208701611030565b9190910192915050565b60006001820161143b57634e487b7160e01b600052601160045260246000fd5b5060010190565b6060815260006114556060830186611054565b6001600160a01b038516602084015282810360408401526110b3818561105456fea2646970667358221220870441334744e3e0f9e675408df1b40886b9cf2e57c24af6a074de366c8b28f364736f6c63430008140033",
  "immutableReferences": {},
  "source": "// SPDX-License-Identifier: MIT\npragma solidity ^0.8.20;\n\ncontract LandRegistry {\n\n    /* ============================\n        ROLES\n    ============================ */\n    address public landOfficer;\n    address public admin;\n\n    modifier onlyOfficer() {\n        require(msg.sender == landOfficer, \"Only Land Officer allowed\");\n        _;\n    }\n\n    modifier onlyAdmin() {\n        require(msg.sender == admin, \"Only Admin allowed\");\n        _;\n    }\n\n    /* ============================\n        DATA STRUCTURES\n    ============================ */\n\n    struct LandParcel {\n        uint id;                  // matches DB onChainId\n        string lrNumber;          // matches Drizzle lrNumber\n        address owner;            // walletAddress from users table\n        string ipfsDocHash;       // stored document hash\n        bool isVerified;\n        uint createdAt;\n    }\n\n    struct OwnershipRecord {\n        address from;\n        address to;\n        uint timestamp;\n        string mpesaRef;\n    }\n\n    /* ============================\n        STATE\n    ============================ */\n\n    uint public landCount;\n\n    mapping(uint => LandParcel) public lands;\n    mapping(uint => OwnershipRecord[]) public ownershipHistory;\n    mapping(string => uint) public lrToId; // fast lookup\n    mapping(string => bool) public registeredLR;\n\n    /* ============================\n        EVENTS (IMPORTANT FOR BACKEND)\n    ============================ */\n\n    event LandRegistered(\n        uint indexed landId,\n        string lrNumber,\n        address owner,\n        string ipfsHash\n    );\n\n    event OwnershipTransferred(\n        uint indexed landId,\n        address indexed from,\n        address indexed to,\n        string mpesaRef\n    );\n\n    /* ============================\n        CONSTRUCTOR\n    ============================ */\n\n    constructor() {\n        admin = msg.sender;\n        landOfficer = msg.sender;\n    }\n\n    /* ============================\n        ADMIN CONTROLS\n    ============================ */\n\n    function setOfficer(address _officer) external onlyAdmin {\n        require(_officer != address(0), \"Invalid officer address\");\n        landOfficer = _officer;\n    }\n\n    /* ============================\n        1. REGISTER LAND (MINT ON CHAIN)\n        Called AFTER officer verification in backend\n    ============================ */\n\n    function registerInitialLand(\n        address _owner,\n        string memory _lrNumber,\n        string memory _ipfsHash\n    ) external onlyOfficer returns (uint) {\n\n        require(!registeredLR[_lrNumber], \"Land already exists on-chain\");\n        require(_owner != address(0), \"Invalid owner\");\n\n        landCount++;\n\n        lands[landCount] = LandParcel({\n            id: landCount,\n            lrNumber: _lrNumber,\n            owner: _owner,\n            ipfsDocHash: _ipfsHash,\n            isVerified: true,\n            createdAt: block.timestamp\n        });\n\n        registeredLR[_lrNumber] = true;\n        lrToId[_lrNumber] = landCount;\n\n        emit LandRegistered(landCount, _lrNumber, _owner, _ipfsHash);\n\n        return landCount;\n    }\n\n    /* ============================\n        2. TRANSFER OWNERSHIP\n        Called AFTER M-Pesa + DB approval\n    ============================ */\n\n    function transferOwnership(\n        uint _landId,\n        address _newOwner,\n        string memory _mpesaRef\n    ) external onlyOfficer {\n\n        LandParcel storage land = lands[_landId];\n\n        require(land.id != 0, \"Land does not exist\");\n        require(_newOwner != address(0), \"Invalid new owner\");\n\n        address previousOwner = land.owner;\n\n        // store history\n        ownershipHistory[_landId].push(\n            OwnershipRecord({\n                from: previousOwner,\n                to: _newOwner,\n                timestamp: block.timestamp,\n                mpesaRef: _mpesaRef\n            })\n        );\n\n        // update ownership\n        land.owner = _newOwner;\n\n        emit OwnershipTransferred(_landId, previousOwner, _newOwner, _mpesaRef);\n    }\n\n    /* ============================\n        3. VIEW FUNCTIONS (IMPORTANT FOR BACKEND)\n    ============================ */\n\n    function getLand(uint _id) external view returns (LandParcel memory) {\n        return lands[_id];\n    }\n\n    function getLandByLR(string memory _lr) external view returns (LandParcel memory) {\n        uint id = lrToId[_lr];\n        return lands[id];\n    }\n\n    function getOwnershipHistory(uint _id)\n        external\n        view\n        returns (OwnershipRecord[] memory)\n    {\n        return ownershipHistory[_id];\n    }\n}",
  "sourcePath": "/home/lee-limo/Documents/Projects/LandRegistryKenya/Truffle/contracts/Land.sol",
  "compiler": {
    "name": "solc",
    "version": "0.8.20+commit.a1b79de6.Emscripten.clang"
  },
  "schemaVersion": "3.4.16",
  "updatedAt": "2026-04-16T06:33:57.096Z",
  "networkType": "ethereum",
  "devdoc": {
    "kind": "dev",
    "methods": {},
    "version": 1
  },
  "userdoc": {
    "kind": "user",
    "methods": {},
    "version": 1
  }
}