{
  "contractName": "LandRegistry",
  "abi": [
    {
      "inputs": [],
      "stateMutability": "nonpayable",
      "type": "constructor"
    },
    {
      "anonymous": false,
      "inputs": [
        {
          "indexed": true,
          "internalType": "uint256",
          "name": "landId",
          "type": "uint256"
        },
        {
          "indexed": false,
          "internalType": "string",
          "name": "lrNumber",
          "type": "string"
        },
        {
          "indexed": false,
          "internalType": "address",
          "name": "owner",
          "type": "address"
        }
      ],
      "name": "LandRegistered",
      "type": "event"
    },
    {
      "anonymous": false,
      "inputs": [
        {
          "indexed": true,
          "internalType": "uint256",
          "name": "landId",
          "type": "uint256"
        },
        {
          "indexed": false,
          "internalType": "address",
          "name": "from",
          "type": "address"
        },
        {
          "indexed": false,
          "internalType": "address",
          "name": "to",
          "type": "address"
        }
      ],
      "name": "OwnershipTransferred",
      "type": "event"
    },
    {
      "inputs": [
        {
          "internalType": "uint256",
          "name": "",
          "type": "uint256"
        },
        {
          "internalType": "uint256",
          "name": "",
          "type": "uint256"
        }
      ],
      "name": "history",
      "outputs": [
        {
          "internalType": "address",
          "name": "from",
          "type": "address"
        },
        {
          "internalType": "address",
          "name": "to",
          "type": "address"
        },
        {
          "internalType": "uint256",
          "name": "timestamp",
          "type": "uint256"
        },
        {
          "internalType": "string",
          "name": "mpesaRef",
          "type": "string"
        }
      ],
      "stateMutability": "view",
      "type": "function",
      "constant": true
    },
    {
      "inputs": [],
      "name": "land_officer",
      "outputs": [
        {
          "internalType": "address",
          "name": "",
          "type": "address"
        }
      ],
      "stateMutability": "view",
      "type": "function",
      "constant": true
    },
    {
      "inputs": [
        {
          "internalType": "uint256",
          "name": "",
          "type": "uint256"
        }
      ],
      "name": "lands",
      "outputs": [
        {
          "internalType": "uint256",
          "name": "id",
          "type": "uint256"
        },
        {
          "internalType": "string",
          "name": "lrNumber",
          "type": "string"
        },
        {
          "internalType": "address",
          "name": "owner",
          "type": "address"
        },
        {
          "internalType": "string",
          "name": "ipfsDocHash",
          "type": "string"
        },
        {
          "internalType": "bool",
          "name": "isVerified",
          "type": "bool"
        }
      ],
      "stateMutability": "view",
      "type": "function",
      "constant": true
    },
    {
      "inputs": [],
      "name": "landsCount",
      "outputs": [
        {
          "internalType": "uint256",
          "name": "",
          "type": "uint256"
        }
      ],
      "stateMutability": "view",
      "type": "function",
      "constant": true
    },
    {
      "inputs": [
        {
          "internalType": "string",
          "name": "",
          "type": "string"
        }
      ],
      "name": "registeredLRs",
      "outputs": [
        {
          "internalType": "bool",
          "name": "",
          "type": "bool"
        }
      ],
      "stateMutability": "view",
      "type": "function",
      "constant": true
    },
    {
      "inputs": [
        {
          "internalType": "address",
          "name": "_owner",
          "type": "address"
        },
        {
          "internalType": "string",
          "name": "_lr",
          "type": "string"
        },
        {
          "internalType": "string",
          "name": "_ipfs",
          "type": "string"
        }
      ],
      "name": "registerInitialLand",
      "outputs": [],
      "stateMutability": "nonpayable",
      "type": "function"
    },
    {
      "inputs": [
        {
          "internalType": "uint256",
          "name": "_landId",
          "type": "uint256"
        },
        {
          "internalType": "address",
          "name": "_newOwner",
          "type": "address"
        },
        {
          "internalType": "string",
          "name": "_mpesaRef",
          "type": "string"
        }
      ],
      "name": "transferOwnership",
      "outputs": [],
      "stateMutability": "nonpayable",
      "type": "function"
    }
  ],
  "bytecode": "0x608060405234801561001057600080fd5b50600080546001600160a01b03191633179055610bd8806100326000396000f3fe608060405234801561001057600080fd5b506004361061007d5760003560e01c806371d9e19e1161005b57806371d9e19e146100de5780639ecf276714610101578063e261f1e51461013f578063fe8cb5821461016357600080fd5b80630c922cc5146100825780631c9afd0f146100b257806371625641146100c9575b600080fd5b600054610095906001600160a01b031681565b6040516001600160a01b0390911681526020015b60405180910390f35b6100bb60045481565b6040519081526020016100a9565b6100dc6100d73660046107d7565b610176565b005b6100f16100ec36600461082e565b6102e4565b6040516100a994939291906108a0565b61012f61010f3660046108dd565b805160208183018101805160038252928201919093012091525460ff1681565b60405190151581526020016100a9565b61015261014d36600461091a565b6103c3565b6040516100a9959493929190610933565b6100dc610171366004610982565b610513565b6000546001600160a01b031633146101d55760405162461bcd60e51b815260206004820152601f60248201527f4f6e6c79204c616e64204f6666696365722063616e20617574686f72697a650060448201526064015b60405180910390fd5b600083815260016020818152604080842060028082015481855283872084516080810186526001600160a01b039283168082528b841682890190815242978301978852606083018c81528454808c018655948c5298909a20825160049094020180549385166001600160a01b03199485161781559951988a01805499909416989092169790971790915592519086015591519193909291600382019061027b9082610a75565b5050506002820180546001600160a01b0319166001600160a01b03868116918217909255604080519284168352602083019190915286917f16b85f49bf01212961345d3016c9a531894accf62eb7680f2045d79185cc0ec0910160405180910390a25050505050565b6002602052816000526040600020818154811061030057600080fd5b600091825260209091206004909102018054600182015460028301546003840180546001600160a01b0394851697509390921694509291610340906109ec565b80601f016020809104026020016040519081016040528092919081815260200182805461036c906109ec565b80156103b95780601f1061038e576101008083540402835291602001916103b9565b820191906000526020600020905b81548152906001019060200180831161039c57829003601f168201915b5050505050905084565b6001602081905260009182526040909120805491810180546103e4906109ec565b80601f0160208091040260200160405190810160405280929190818152602001828054610410906109ec565b801561045d5780601f106104325761010080835404028352916020019161045d565b820191906000526020600020905b81548152906001019060200180831161044057829003601f168201915b505050600284015460038501805494956001600160a01b03909216949193509150610487906109ec565b80601f01602080910402602001604051908101604052809291908181526020018280546104b3906109ec565b80156105005780601f106104d557610100808354040283529160200191610500565b820191906000526020600020905b8154815290600101906020018083116104e357829003601f168201915b5050506004909301549192505060ff1685565b6000546001600160a01b0316331461056d5760405162461bcd60e51b815260206004820152601f60248201527f4f6e6c79204c616e64204f6666696365722063616e20617574686f72697a650060448201526064016101cc565b60038260405161057d9190610b35565b9081526040519081900360200190205460ff16156105dd5760405162461bcd60e51b815260206004820152601a60248201527f4c52204e756d62657220616c7265616479206f6e2d636861696e00000000000060448201526064016101cc565b600480549060006105ed83610b51565b90915550506040805160a08101825260045480825260208083018681526001600160a01b0388168486015260608401869052600160808501819052600093845291829052939091208251815592519192919082019061064c9082610a75565b5060408201516002820180546001600160a01b0319166001600160a01b03909216919091179055606082015160038201906106879082610a75565b50608091909101516004909101805460ff19169115159190911790556040516001906003906106b7908590610b35565b908152604051908190036020018120805492151560ff1990931692909217909155600454907f0a14f5ae2f9ee538270143056894f8128fb116c653fb2fde847dcebdd181622e9061070b9085908790610b78565b60405180910390a2505050565b80356001600160a01b038116811461072f57600080fd5b919050565b634e487b7160e01b600052604160045260246000fd5b600082601f83011261075b57600080fd5b813567ffffffffffffffff8082111561077657610776610734565b604051601f8301601f19908116603f0116810190828211818310171561079e5761079e610734565b816040528381528660208588010111156107b757600080fd5b836020870160208301376000602085830101528094505050505092915050565b6000806000606084860312156107ec57600080fd5b833592506107fc60208501610718565b9150604084013567ffffffffffffffff81111561081857600080fd5b6108248682870161074a565b9150509250925092565b6000806040838503121561084157600080fd5b50508035926020909101359150565b60005b8381101561086b578181015183820152602001610853565b50506000910152565b6000815180845261088c816020860160208601610850565b601f01601f19169290920160200192915050565b6001600160a01b03858116825284166020820152604081018390526080606082018190526000906108d390830184610874565b9695505050505050565b6000602082840312156108ef57600080fd5b813567ffffffffffffffff81111561090657600080fd5b6109128482850161074a565b949350505050565b60006020828403121561092c57600080fd5b5035919050565b85815260a06020820152600061094c60a0830187610874565b6001600160a01b0386166040840152828103606084015261096d8186610874565b91505082151560808301529695505050505050565b60008060006060848603121561099757600080fd5b6109a084610718565b9250602084013567ffffffffffffffff808211156109bd57600080fd5b6109c98783880161074a565b935060408601359150808211156109df57600080fd5b506108248682870161074a565b600181811c90821680610a0057607f821691505b602082108103610a2057634e487b7160e01b600052602260045260246000fd5b50919050565b601f821115610a7057600081815260208120601f850160051c81016020861015610a4d5750805b601f850160051c820191505b81811015610a6c57828155600101610a59565b5050505b505050565b815167ffffffffffffffff811115610a8f57610a8f610734565b610aa381610a9d84546109ec565b84610a26565b602080601f831160018114610ad85760008415610ac05750858301515b600019600386901b1c1916600185901b178555610a6c565b600085815260208120601f198616915b82811015610b0757888601518255948401946001909101908401610ae8565b5085821015610b255787850151600019600388901b60f8161c191681555b5050505050600190811b01905550565b60008251610b47818460208701610850565b9190910192915050565b600060018201610b7157634e487b7160e01b600052601160045260246000fd5b5060010190565b604081526000610b8b6040830185610874565b905060018060a01b0383166020830152939250505056fea2646970667358221220dbbd79264bc962328399478e7eb2c8d3c33fbb8625fa793fbd3e39f8ae1b7b0a64736f6c63430008140033",
  "immutableReferences": {},
  "source": "// SPDX-License-Identifier: MIT\npragma solidity ^0.8.0;\n\ncontract LandRegistry {\n    address public land_officer;\n\n    struct LandParcel {\n        uint id;\n        string lrNumber;      // Linked to lrNumber in Drizzle\n        address owner;        // Wallet address from users table\n        string ipfsDocHash;   // Document hash from lands table\n        bool isVerified;\n    }\n\n    struct OwnershipHistory {\n        address from;\n        address to;\n        uint timestamp;\n        string mpesaRef;      // M-Pesa code stored for audit\n    }\n\n    mapping(uint => LandParcel) public lands;\n    mapping(uint => OwnershipHistory[]) public history;\n    mapping(string => bool) public registeredLRs;\n\n    uint public landsCount;\n\n    event LandRegistered(uint indexed landId, string lrNumber, address owner);\n    event OwnershipTransferred(uint indexed landId, address from, address to);\n\n    modifier onlyOfficer() {\n        require(msg.sender == land_officer, \"Only Land Officer can authorize\");\n        _;\n    }\n\n    constructor() {\n        land_officer = msg.sender;\n    }\n\n    // Called when Land Officer verifies a new parcel\n    function registerInitialLand(address _owner, string memory _lr, string memory _ipfs) public onlyOfficer {\n        require(!registeredLRs[_lr], \"LR Number already on-chain\");\n        \n        landsCount++;\n        lands[landsCount] = LandParcel(landsCount, _lr, _owner, _ipfs, true);\n        registeredLRs[_lr] = true;\n\n        emit LandRegistered(landsCount, _lr, _owner);\n    }\n\n    // Called when Land Officer approves a transfer (After M-Pesa verification)\n    function transferOwnership(uint _landId, address _newOwner, string memory _mpesaRef) public onlyOfficer {\n        LandParcel storage land = lands[_landId];\n        address oldOwner = land.owner;\n\n        history[_landId].push(OwnershipHistory(oldOwner, _newOwner, block.timestamp, _mpesaRef));\n        land.owner = _newOwner;\n\n        emit OwnershipTransferred(_landId, oldOwner, _newOwner);\n    }\n}",
  "sourcePath": "/home/lee-limo/Documents/Projects/LandRegistryKenya/Truffle/contracts/Land.sol",
  "compiler": {
    "name": "solc",
    "version": "0.8.20+commit.a1b79de6.Emscripten.clang"
  },
  "schemaVersion": "3.4.16",
  "updatedAt": "2026-03-19T08:28:50.121Z",
  "networkType": "ethereum",
  "devdoc": {
    "kind": "dev",
    "methods": {},
    "version": 1
  },
  "userdoc": {
    "kind": "user",
    "methods": {},
    "version": 1
  }
}