{
  "contractName": "LandRegistry",
  "abi": [
    {
      "inputs": [],
      "stateMutability": "nonpayable",
      "type": "constructor"
    },
    {
      "anonymous": false,
      "inputs": [
        {
          "indexed": true,
          "internalType": "address",
          "name": "oldAdmin",
          "type": "address"
        },
        {
          "indexed": true,
          "internalType": "address",
          "name": "newAdmin",
          "type": "address"
        }
      ],
      "name": "AdminTransferred",
      "type": "event"
    },
    {
      "anonymous": false,
      "inputs": [
        {
          "indexed": true,
          "internalType": "uint256",
          "name": "landId",
          "type": "uint256"
        },
        {
          "indexed": false,
          "internalType": "string",
          "name": "lrNumber",
          "type": "string"
        },
        {
          "indexed": false,
          "internalType": "address",
          "name": "owner",
          "type": "address"
        },
        {
          "indexed": false,
          "internalType": "string",
          "name": "ipfsHash",
          "type": "string"
        }
      ],
      "name": "LandRegistered",
      "type": "event"
    },
    {
      "anonymous": false,
      "inputs": [
        {
          "indexed": true,
          "internalType": "address",
          "name": "officer",
          "type": "address"
        },
        {
          "indexed": false,
          "internalType": "bool",
          "name": "status",
          "type": "bool"
        }
      ],
      "name": "OfficerStatusChanged",
      "type": "event"
    },
    {
      "anonymous": false,
      "inputs": [
        {
          "indexed": true,
          "internalType": "uint256",
          "name": "landId",
          "type": "uint256"
        },
        {
          "indexed": true,
          "internalType": "address",
          "name": "from",
          "type": "address"
        },
        {
          "indexed": true,
          "internalType": "address",
          "name": "to",
          "type": "address"
        },
        {
          "indexed": false,
          "internalType": "string",
          "name": "mpesaRef",
          "type": "string"
        }
      ],
      "name": "OwnershipTransferred",
      "type": "event"
    },
    {
      "anonymous": false,
      "inputs": [
        {
          "indexed": true,
          "internalType": "address",
          "name": "system",
          "type": "address"
        },
        {
          "indexed": false,
          "internalType": "bool",
          "name": "status",
          "type": "bool"
        }
      ],
      "name": "SystemStatusChanged",
      "type": "event"
    },
    {
      "inputs": [],
      "name": "admin",
      "outputs": [
        {
          "internalType": "address",
          "name": "",
          "type": "address"
        }
      ],
      "stateMutability": "view",
      "type": "function",
      "constant": true
    },
    {
      "inputs": [
        {
          "internalType": "address",
          "name": "",
          "type": "address"
        }
      ],
      "name": "isLandOfficer",
      "outputs": [
        {
          "internalType": "bool",
          "name": "",
          "type": "bool"
        }
      ],
      "stateMutability": "view",
      "type": "function",
      "constant": true
    },
    {
      "inputs": [
        {
          "internalType": "address",
          "name": "",
          "type": "address"
        }
      ],
      "name": "isSystem",
      "outputs": [
        {
          "internalType": "bool",
          "name": "",
          "type": "bool"
        }
      ],
      "stateMutability": "view",
      "type": "function",
      "constant": true
    },
    {
      "inputs": [],
      "name": "landCount",
      "outputs": [
        {
          "internalType": "uint256",
          "name": "",
          "type": "uint256"
        }
      ],
      "stateMutability": "view",
      "type": "function",
      "constant": true
    },
    {
      "inputs": [
        {
          "internalType": "uint256",
          "name": "",
          "type": "uint256"
        }
      ],
      "name": "lands",
      "outputs": [
        {
          "internalType": "uint256",
          "name": "id",
          "type": "uint256"
        },
        {
          "internalType": "string",
          "name": "lrNumber",
          "type": "string"
        },
        {
          "internalType": "address",
          "name": "owner",
          "type": "address"
        },
        {
          "internalType": "string",
          "name": "ipfsDocHash",
          "type": "string"
        },
        {
          "internalType": "bool",
          "name": "isVerified",
          "type": "bool"
        },
        {
          "internalType": "uint256",
          "name": "createdAt",
          "type": "uint256"
        }
      ],
      "stateMutability": "view",
      "type": "function",
      "constant": true
    },
    {
      "inputs": [
        {
          "internalType": "string",
          "name": "",
          "type": "string"
        }
      ],
      "name": "lrToId",
      "outputs": [
        {
          "internalType": "uint256",
          "name": "",
          "type": "uint256"
        }
      ],
      "stateMutability": "view",
      "type": "function",
      "constant": true
    },
    {
      "inputs": [
        {
          "internalType": "uint256",
          "name": "",
          "type": "uint256"
        },
        {
          "internalType": "uint256",
          "name": "",
          "type": "uint256"
        }
      ],
      "name": "ownershipHistory",
      "outputs": [
        {
          "internalType": "address",
          "name": "from",
          "type": "address"
        },
        {
          "internalType": "address",
          "name": "to",
          "type": "address"
        },
        {
          "internalType": "uint256",
          "name": "timestamp",
          "type": "uint256"
        },
        {
          "internalType": "string",
          "name": "mpesaRef",
          "type": "string"
        }
      ],
      "stateMutability": "view",
      "type": "function",
      "constant": true
    },
    {
      "inputs": [
        {
          "internalType": "string",
          "name": "",
          "type": "string"
        }
      ],
      "name": "processedPayments",
      "outputs": [
        {
          "internalType": "bool",
          "name": "",
          "type": "bool"
        }
      ],
      "stateMutability": "view",
      "type": "function",
      "constant": true
    },
    {
      "inputs": [
        {
          "internalType": "string",
          "name": "",
          "type": "string"
        }
      ],
      "name": "registeredLR",
      "outputs": [
        {
          "internalType": "bool",
          "name": "",
          "type": "bool"
        }
      ],
      "stateMutability": "view",
      "type": "function",
      "constant": true
    },
    {
      "inputs": [
        {
          "internalType": "address",
          "name": "_officer",
          "type": "address"
        },
        {
          "internalType": "bool",
          "name": "_status",
          "type": "bool"
        }
      ],
      "name": "setOfficerStatus",
      "outputs": [],
      "stateMutability": "nonpayable",
      "type": "function"
    },
    {
      "inputs": [
        {
          "internalType": "address",
          "name": "_system",
          "type": "address"
        },
        {
          "internalType": "bool",
          "name": "_status",
          "type": "bool"
        }
      ],
      "name": "setSystemAddress",
      "outputs": [],
      "stateMutability": "nonpayable",
      "type": "function"
    },
    {
      "inputs": [
        {
          "internalType": "address",
          "name": "_newAdmin",
          "type": "address"
        }
      ],
      "name": "transferAdmin",
      "outputs": [],
      "stateMutability": "nonpayable",
      "type": "function"
    },
    {
      "inputs": [
        {
          "internalType": "address",
          "name": "_owner",
          "type": "address"
        },
        {
          "internalType": "string",
          "name": "_lrNumber",
          "type": "string"
        },
        {
          "internalType": "string",
          "name": "_ipfsHash",
          "type": "string"
        }
      ],
      "name": "registerLand",
      "outputs": [
        {
          "internalType": "uint256",
          "name": "",
          "type": "uint256"
        }
      ],
      "stateMutability": "nonpayable",
      "type": "function"
    },
    {
      "inputs": [
        {
          "internalType": "uint256",
          "name": "_landId",
          "type": "uint256"
        },
        {
          "internalType": "address",
          "name": "_newOwner",
          "type": "address"
        },
        {
          "internalType": "string",
          "name": "_mpesaRef",
          "type": "string"
        }
      ],
      "name": "transferOwnership",
      "outputs": [],
      "stateMutability": "nonpayable",
      "type": "function"
    },
    {
      "inputs": [
        {
          "internalType": "uint256",
          "name": "_id",
          "type": "uint256"
        }
      ],
      "name": "getLand",
      "outputs": [
        {
          "components": [
            {
              "internalType": "uint256",
              "name": "id",
              "type": "uint256"
            },
            {
              "internalType": "string",
              "name": "lrNumber",
              "type": "string"
            },
            {
              "internalType": "address",
              "name": "owner",
              "type": "address"
            },
            {
              "internalType": "string",
              "name": "ipfsDocHash",
              "type": "string"
            },
            {
              "internalType": "bool",
              "name": "isVerified",
              "type": "bool"
            },
            {
              "internalType": "uint256",
              "name": "createdAt",
              "type": "uint256"
            }
          ],
          "internalType": "struct LandRegistry.LandParcel",
          "name": "",
          "type": "tuple"
        }
      ],
      "stateMutability": "view",
      "type": "function",
      "constant": true
    },
    {
      "inputs": [
        {
          "internalType": "string",
          "name": "_lr",
          "type": "string"
        }
      ],
      "name": "getLandByLR",
      "outputs": [
        {
          "components": [
            {
              "internalType": "uint256",
              "name": "id",
              "type": "uint256"
            },
            {
              "internalType": "string",
              "name": "lrNumber",
              "type": "string"
            },
            {
              "internalType": "address",
              "name": "owner",
              "type": "address"
            },
            {
              "internalType": "string",
              "name": "ipfsDocHash",
              "type": "string"
            },
            {
              "internalType": "bool",
              "name": "isVerified",
              "type": "bool"
            },
            {
              "internalType": "uint256",
              "name": "createdAt",
              "type": "uint256"
            }
          ],
          "internalType": "struct LandRegistry.LandParcel",
          "name": "",
          "type": "tuple"
        }
      ],
      "stateMutability": "view",
      "type": "function",
      "constant": true
    },
    {
      "inputs": [
        {
          "internalType": "uint256",
          "name": "_id",
          "type": "uint256"
        }
      ],
      "name": "getOwnershipHistory",
      "outputs": [
        {
          "components": [
            {
              "internalType": "address",
              "name": "from",
              "type": "address"
            },
            {
              "internalType": "address",
              "name": "to",
              "type": "address"
            },
            {
              "internalType": "uint256",
              "name": "timestamp",
              "type": "uint256"
            },
            {
              "internalType": "string",
              "name": "mpesaRef",
              "type": "string"
            }
          ],
          "internalType": "struct LandRegistry.OwnershipRecord[]",
          "name": "",
          "type": "tuple[]"
        }
      ],
      "stateMutability": "view",
      "type": "function",
      "constant": true
    }
  ],
  "bytecode": "0x608060405234801561001057600080fd5b50600080546001600160a01b0319163390811782558152600160208190526040909120805460ff1916909117905561191d8061004d6000396000f3fe608060405234801561001057600080fd5b506004361061010b5760003560e01c8063bf9cf4cf116100a2578063e38cfca111610071578063e38cfca114610287578063f02dd53f146102b2578063f1dbaccb146102d2578063f851a440146102f2578063fcb7b83c1461031d57600080fd5b8063bf9cf4cf14610223578063c9cf2adc14610236578063d7bce65814610259578063e261f1e51461026257600080fd5b806375829def116100de57806375829def1461019e5780639b931abf146101b1578063a3e0faf6146101df578063aa0efd8a1461020257600080fd5b80632dd99ab91461011057806334cdcf26146101255780634dc73b7f1461015d578063716256411461018b575b600080fd5b61012361011e36600461129d565b610330565b005b6101486101333660046112d9565b60026020526000908152604090205460ff1681565b60405190151581526020015b60405180910390f35b61014861016b36600461139e565b805160208183018101805160078252928201919093012091525460ff1681565b6101236101993660046113db565b6103e9565b6101236101ac3660046112d9565b610748565b6101486101bf36600461139e565b805160208183018101805160088252928201919093012091525460ff1681565b6101486101ed3660046112d9565b60016020526000908152604090205460ff1681565b610215610210366004611432565b6107e8565b604051908152602001610154565b61012361023136600461129d565b610a6d565b61024961024436600461149c565b610b15565b604051610154949392919061150e565b61021560035481565b61027561027036600461154b565b610bf4565b60405161015496959493929190611564565b61021561029536600461139e565b805160208183018101805160068252928201919093012091525481565b6102c56102c036600461154b565b610d4c565b60405161015491906115b4565b6102e56102e036600461154b565b610f20565b6040516101549190611630565b600054610305906001600160a01b031681565b6040516001600160a01b039091168152602001610154565b6102c561032b36600461139e565b611052565b6000546001600160a01b031633146103635760405162461bcd60e51b815260040161035a906116c7565b60405180910390fd5b6001600160a01b0382166103895760405162461bcd60e51b815260040161035a906116eb565b6001600160a01b038216600081815260026020908152604091829020805460ff191685151590811790915591519182527f0e391dd95d6a7dfe92ab75df91fd282d12ac276a9e0ae45dbccb185ba83a9c2f91015b60405180910390a25050565b3360009081526001602052604090205460ff168061041657503360009081526002602052604090205460ff165b8061042b57506000546001600160a01b031633145b6104685760405162461bcd60e51b815260206004820152600e60248201526d139bdd08185d5d1a1bdc9a5e995960921b604482015260640161035a565b600083815260046020526040812080549091036104b85760405162461bcd60e51b815260206004820152600e60248201526d13185b99081b9bdd08199bdd5b9960921b604482015260640161035a565b60028101546001600160a01b03166105075760405162461bcd60e51b8152602060048201526012602482015271496e76616c6964206c616e6420737461746560701b604482015260640161035a565b6001600160a01b0383166105515760405162461bcd60e51b815260206004820152601160248201527024b73b30b634b2103732bb9037bbb732b960791b604482015260640161035a565b60028101546001600160a01b0380851691160361059d5760405162461bcd60e51b815260206004820152600a60248201526929b0b6b29037bbb732b960b11b604482015260640161035a565b6008826040516105ad9190611714565b9081526040519081900360200190205460ff161561060d5760405162461bcd60e51b815260206004820152601960248201527f5061796d656e7420616c72656164792070726f63657373656400000000000000604482015260640161035a565b600160088360405161061f9190611714565b9081526040805160209281900383018120805460ff1916941515949094179093556002848101546000898152600585528381206080870185526001600160a01b039283168088528a841687890190815242968901968752606089018b815283546001818101865594865298909420895160049099020180546001600160a01b0319908116998716999099178155905192810180549098169290941691909117909555925191810191909155905191929160038201906106de90826117b9565b5050506002820180546001600160a01b0319166001600160a01b03868116918217909255604051909183169087907fc6f76974206718b625c9faba8b5ae1931f1e7a6620c23458a74554aeffef136090610739908890611879565b60405180910390a45050505050565b6000546001600160a01b031633146107725760405162461bcd60e51b815260040161035a906116c7565b6001600160a01b0381166107985760405162461bcd60e51b815260040161035a906116eb565b600080546001600160a01b038381166001600160a01b0319831681178455604051919092169283917ff8ccb027dfcd135e000e9d45e6cc2d662578a8825d4c45b5e32e0adf67e79ec69190a35050565b3360009081526001602052604081205460ff168061081057506000546001600160a01b031633145b6108515760405162461bcd60e51b815260206004820152601260248201527127b7363c9037b33334b1b2b917b0b236b4b760711b604482015260640161035a565b6007836040516108619190611714565b9081526040519081900360200190205460ff16156108af5760405162461bcd60e51b815260206004820152600b60248201526a4c616e642065786973747360a81b604482015260640161035a565b6001600160a01b0384166108f55760405162461bcd60e51b815260206004820152600d60248201526c24b73b30b634b21037bbb732b960991b604482015260640161035a565b600380549060006109058361188c565b90915550506040805160c08101825260035480825260208083018781526001600160a01b03891684860152606084018790526001608085018190524260a086015260009384526004909252939091208251815592519192919082019061096b90826117b9565b5060408201516002820180546001600160a01b0319166001600160a01b03909216919091179055606082015160038201906109a690826117b9565b50608082015160048201805460ff191691151591909117905560a0909101516005909101556040516001906007906109df908690611714565b908152604051908190036020018120805492151560ff199093169290921790915560035490600690610a12908690611714565b9081526020016040518091039020819055506003547fcb7c53eba11a9a2b1e2c18089275a5cad35cfa23b1fffb1419326cad0e72b02a848685604051610a5a939291906118b3565b60405180910390a2506003549392505050565b6000546001600160a01b03163314610a975760405162461bcd60e51b815260040161035a906116c7565b6001600160a01b038216610abd5760405162461bcd60e51b815260040161035a906116eb565b6001600160a01b038216600081815260016020908152604091829020805460ff191685151590811790915591519182527f8a40ef3e42980aa96509d3e2e04b0c037f32d7251181d8843c0cb9b3378c99df91016103dd565b60056020528160005260406000208181548110610b3157600080fd5b600091825260209091206004909102018054600182015460028301546003840180546001600160a01b0394851697509390921694509291610b7190611730565b80601f0160208091040260200160405190810160405280929190818152602001828054610b9d90611730565b8015610bea5780601f10610bbf57610100808354040283529160200191610bea565b820191906000526020600020905b815481529060010190602001808311610bcd57829003601f168201915b5050505050905084565b60046020526000908152604090208054600182018054919291610c1690611730565b80601f0160208091040260200160405190810160405280929190818152602001828054610c4290611730565b8015610c8f5780601f10610c6457610100808354040283529160200191610c8f565b820191906000526020600020905b815481529060010190602001808311610c7257829003601f168201915b505050600284015460038501805494956001600160a01b03909216949193509150610cb990611730565b80601f0160208091040260200160405190810160405280929190818152602001828054610ce590611730565b8015610d325780601f10610d0757610100808354040283529160200191610d32565b820191906000526020600020905b815481529060010190602001808311610d1557829003601f168201915b505050506004830154600590930154919260ff1691905086565b610d54611240565b6000828152600460205260408120549003610d9d5760405162461bcd60e51b8152602060048201526009602482015268139bdd08199bdd5b9960ba1b604482015260640161035a565b600460008381526020019081526020016000206040518060c001604052908160008201548152602001600182018054610dd590611730565b80601f0160208091040260200160405190810160405280929190818152602001828054610e0190611730565b8015610e4e5780601f10610e2357610100808354040283529160200191610e4e565b820191906000526020600020905b815481529060010190602001808311610e3157829003601f168201915b505050918352505060028201546001600160a01b03166020820152600382018054604090920191610e7e90611730565b80601f0160208091040260200160405190810160405280929190818152602001828054610eaa90611730565b8015610ef75780601f10610ecc57610100808354040283529160200191610ef7565b820191906000526020600020905b815481529060010190602001808311610eda57829003601f168201915b5050509183525050600482015460ff161515602082015260059091015460409091015292915050565b606060056000838152602001908152602001600020805480602002602001604051908101604052809291908181526020016000905b82821015611047576000848152602090819020604080516080810182526004860290920180546001600160a01b03908116845260018201541693830193909352600283015490820152600382018054919291606084019190610fb690611730565b80601f0160208091040260200160405190810160405280929190818152602001828054610fe290611730565b801561102f5780601f106110045761010080835404028352916020019161102f565b820191906000526020600020905b81548152906001019060200180831161101257829003601f168201915b50505050508152505081526020019060010190610f55565b505050509050919050565b61105a611240565b600060068360405161106c9190611714565b9081526020016040518091039020549050806000036110bc5760405162461bcd60e51b815260206004820152600c60248201526b1314881b9bdd08199bdd5b9960a21b604482015260640161035a565b600460008281526020019081526020016000206040518060c0016040529081600082015481526020016001820180546110f490611730565b80601f016020809104026020016040519081016040528092919081815260200182805461112090611730565b801561116d5780601f106111425761010080835404028352916020019161116d565b820191906000526020600020905b81548152906001019060200180831161115057829003601f168201915b505050918352505060028201546001600160a01b0316602082015260038201805460409092019161119d90611730565b80601f01602080910402602001604051908101604052809291908181526020018280546111c990611730565b80156112165780601f106111eb57610100808354040283529160200191611216565b820191906000526020600020905b8154815290600101906020018083116111f957829003601f168201915b5050509183525050600482015460ff16151560208201526005909101546040909101529392505050565b6040518060c00160405280600081526020016060815260200160006001600160a01b0316815260200160608152602001600015158152602001600081525090565b80356001600160a01b038116811461129857600080fd5b919050565b600080604083850312156112b057600080fd5b6112b983611281565b9150602083013580151581146112ce57600080fd5b809150509250929050565b6000602082840312156112eb57600080fd5b6112f482611281565b9392505050565b634e487b7160e01b600052604160045260246000fd5b600082601f83011261132257600080fd5b813567ffffffffffffffff8082111561133d5761133d6112fb565b604051601f8301601f19908116603f01168101908282118183101715611365576113656112fb565b8160405283815286602085880101111561137e57600080fd5b836020870160208301376000602085830101528094505050505092915050565b6000602082840312156113b057600080fd5b813567ffffffffffffffff8111156113c757600080fd5b6113d384828501611311565b949350505050565b6000806000606084860312156113f057600080fd5b8335925061140060208501611281565b9150604084013567ffffffffffffffff81111561141c57600080fd5b61142886828701611311565b9150509250925092565b60008060006060848603121561144757600080fd5b61145084611281565b9250602084013567ffffffffffffffff8082111561146d57600080fd5b61147987838801611311565b9350604086013591508082111561148f57600080fd5b5061142886828701611311565b600080604083850312156114af57600080fd5b50508035926020909101359150565b60005b838110156114d95781810151838201526020016114c1565b50506000910152565b600081518084526114fa8160208601602086016114be565b601f01601f19169290920160200192915050565b6001600160a01b0385811682528416602082015260408101839052608060608201819052600090611541908301846114e2565b9695505050505050565b60006020828403121561155d57600080fd5b5035919050565b86815260c06020820152600061157d60c08301886114e2565b6001600160a01b0387166040840152828103606084015261159e81876114e2565b9415156080840152505060a00152949350505050565b60208152815160208201526000602083015160c060408401526115da60e08401826114e2565b60408501516001600160a01b0316606085810191909152850151848203601f1901608086015290915061160d82826114e2565b9150506080840151151560a084015260a084015160c08401528091505092915050565b60006020808301818452808551808352604092508286019150828160051b87010184880160005b838110156116b957888303603f19018552815180516001600160a01b03908116855288820151168885015286810151878501526060908101516080918501829052906116a5818601836114e2565b968901969450505090860190600101611657565b509098975050505050505050565b6020808252600a908201526927b7363c9030b236b4b760b11b604082015260600190565b6020808252600f908201526e496e76616c6964206164647265737360881b604082015260600190565b600082516117268184602087016114be565b9190910192915050565b600181811c9082168061174457607f821691505b60208210810361176457634e487b7160e01b600052602260045260246000fd5b50919050565b601f8211156117b457600081815260208120601f850160051c810160208610156117915750805b601f850160051c820191505b818110156117b05782815560010161179d565b5050505b505050565b815167ffffffffffffffff8111156117d3576117d36112fb565b6117e7816117e18454611730565b8461176a565b602080601f83116001811461181c57600084156118045750858301515b600019600386901b1c1916600185901b1785556117b0565b600085815260208120601f198616915b8281101561184b5788860151825594840194600190910190840161182c565b50858210156118695787850151600019600388901b60f8161c191681555b5050505050600190811b01905550565b6020815260006112f460208301846114e2565b6000600182016118ac57634e487b7160e01b600052601160045260246000fd5b5060010190565b6060815260006118c660608301866114e2565b6001600160a01b0385166020840152828103604084015261154181856114e256fea26469706673582212207e4ba3115c1571a67a5875fb7bfd4f119e68d4965a27e52600af7d63df7fcce664736f6c63430008140033",
  "immutableReferences": {},
  "source": "// SPDX-License-Identifier: MIT\npragma solidity ^0.8.20;\n\n/**\n * @title LandRegistry\n * @dev Secure land registry with backend-controlled transfers\n */\ncontract LandRegistry {\n\n    /* ============================\n        ROLES & ACCESS CONTROL\n    ============================ */\n\n    address public admin;\n\n    mapping(address => bool) public isLandOfficer;\n    mapping(address => bool) public isSystem; // 🔥 Backend role\n\n    modifier onlyAdmin() {\n        require(msg.sender == admin, \"Only admin\");\n        _;\n    }\n\n    modifier onlyOfficer() {\n        require(\n            isLandOfficer[msg.sender] || msg.sender == admin,\n            \"Only officer/admin\"\n        );\n        _;\n    }\n\n    modifier onlyAuthorized() {\n        require(\n            isLandOfficer[msg.sender] ||\n            isSystem[msg.sender] ||\n            msg.sender == admin,\n            \"Not authorized\"\n        );\n        _;\n    }\n\n    /* ============================\n        DATA STRUCTURES\n    ============================ */\n\n    struct LandParcel {\n        uint256 id;\n        string lrNumber;\n        address owner;\n        string ipfsDocHash;\n        bool isVerified;\n        uint256 createdAt;\n    }\n\n    struct OwnershipRecord {\n        address from;\n        address to;\n        uint256 timestamp;\n        string mpesaRef;\n    }\n\n    /* ============================\n        STATE\n    ============================ */\n\n    uint256 public landCount;\n\n    mapping(uint256 => LandParcel) public lands;\n    mapping(uint256 => OwnershipRecord[]) public ownershipHistory;\n\n    mapping(string => uint256) public lrToId;\n    mapping(string => bool) public registeredLR;\n\n    // 🔒 Prevent duplicate payment processing\n    mapping(string => bool) public processedPayments;\n\n    /* ============================\n        EVENTS\n    ============================ */\n\n    event LandRegistered(\n        uint256 indexed landId,\n        string lrNumber,\n        address owner,\n        string ipfsHash\n    );\n\n    event OwnershipTransferred(\n        uint256 indexed landId,\n        address indexed from,\n        address indexed to,\n        string mpesaRef\n    );\n\n    event OfficerStatusChanged(address indexed officer, bool status);\n    event SystemStatusChanged(address indexed system, bool status);\n    event AdminTransferred(address indexed oldAdmin, address indexed newAdmin);\n\n    /* ============================\n        CONSTRUCTOR\n    ============================ */\n\n    constructor() {\n        admin = msg.sender;\n        isLandOfficer[msg.sender] = true;\n    }\n\n    /* ============================\n        ADMIN CONTROLS\n    ============================ */\n\n    function setOfficerStatus(address _officer, bool _status) external onlyAdmin {\n        require(_officer != address(0), \"Invalid address\");\n        isLandOfficer[_officer] = _status;\n        emit OfficerStatusChanged(_officer, _status);\n    }\n\n    function setSystemAddress(address _system, bool _status) external onlyAdmin {\n        require(_system != address(0), \"Invalid address\");\n        isSystem[_system] = _status;\n        emit SystemStatusChanged(_system, _status);\n    }\n\n    function transferAdmin(address _newAdmin) external onlyAdmin {\n        require(_newAdmin != address(0), \"Invalid address\");\n\n        address oldAdmin = admin;\n        admin = _newAdmin;\n\n        emit AdminTransferred(oldAdmin, _newAdmin);\n    }\n\n    /* ============================\n        1. REGISTER LAND (MINT)\n    ============================ */\n\n    function registerLand(\n        address _owner,\n        string memory _lrNumber,\n        string memory _ipfsHash\n    ) external onlyOfficer returns (uint256) {\n\n        require(!registeredLR[_lrNumber], \"Land exists\");\n        require(_owner != address(0), \"Invalid owner\");\n\n        landCount++;\n\n        lands[landCount] = LandParcel({\n            id: landCount,\n            lrNumber: _lrNumber,\n            owner: _owner,\n            ipfsDocHash: _ipfsHash,\n            isVerified: true,\n            createdAt: block.timestamp\n        });\n\n        registeredLR[_lrNumber] = true;\n        lrToId[_lrNumber] = landCount;\n\n        emit LandRegistered(landCount, _lrNumber, _owner, _ipfsHash);\n\n        return landCount;\n    }\n\n    /* ============================\n        2. TRANSFER OWNERSHIP\n    ============================ */\n\n    function transferOwnership(\n        uint256 _landId,\n        address _newOwner,\n        string memory _mpesaRef\n    ) external onlyAuthorized {\n\n        LandParcel storage land = lands[_landId];\n\n        require(land.id != 0, \"Land not found\");\n        require(land.owner != address(0), \"Invalid land state\");\n        require(_newOwner != address(0), \"Invalid new owner\");\n        require(land.owner != _newOwner, \"Same owner\");\n\n        // 🔒 Prevent double execution\n        require(!processedPayments[_mpesaRef], \"Payment already processed\");\n        processedPayments[_mpesaRef] = true;\n\n        address previousOwner = land.owner;\n\n        ownershipHistory[_landId].push(\n            OwnershipRecord({\n                from: previousOwner,\n                to: _newOwner,\n                timestamp: block.timestamp,\n                mpesaRef: _mpesaRef\n            })\n        );\n\n        land.owner = _newOwner;\n\n        emit OwnershipTransferred(_landId, previousOwner, _newOwner, _mpesaRef);\n    }\n\n    /* ============================\n        VIEW FUNCTIONS\n    ============================ */\n\n    function getLand(uint256 _id) external view returns (LandParcel memory) {\n        require(lands[_id].id != 0, \"Not found\");\n        return lands[_id];\n    }\n\n    function getLandByLR(string memory _lr) external view returns (LandParcel memory) {\n        uint256 id = lrToId[_lr];\n        require(id != 0, \"LR not found\");\n        return lands[id];\n    }\n\n    function getOwnershipHistory(uint256 _id)\n        external\n        view\n        returns (OwnershipRecord[] memory)\n    {\n        return ownershipHistory[_id];\n    }\n}",
  "sourcePath": "/home/lee-limo/Documents/Projects/LandRegistryKenya/Truffle/contracts/Land.sol",
  "compiler": {
    "name": "solc",
    "version": "0.8.20+commit.a1b79de6.Emscripten.clang"
  },
  "schemaVersion": "3.4.16",
  "updatedAt": "2026-04-27T18:19:33.354Z",
  "networkType": "ethereum",
  "devdoc": {
    "details": "Secure land registry with backend-controlled transfers",
    "kind": "dev",
    "methods": {},
    "title": "LandRegistry",
    "version": 1
  },
  "userdoc": {
    "kind": "user",
    "methods": {},
    "version": 1
  }
}