{
  "contractName": "LandRegistry",
  "abi": [
    {
      "inputs": [],
      "stateMutability": "nonpayable",
      "type": "constructor"
    },
    {
      "anonymous": false,
      "inputs": [
        {
          "indexed": true,
          "internalType": "uint256",
          "name": "landId",
          "type": "uint256"
        },
        {
          "indexed": false,
          "internalType": "string",
          "name": "lrNumber",
          "type": "string"
        },
        {
          "indexed": false,
          "internalType": "address",
          "name": "owner",
          "type": "address"
        },
        {
          "indexed": false,
          "internalType": "string",
          "name": "ipfsHash",
          "type": "string"
        }
      ],
      "name": "LandRegistered",
      "type": "event"
    },
    {
      "anonymous": false,
      "inputs": [
        {
          "indexed": true,
          "internalType": "address",
          "name": "officer",
          "type": "address"
        },
        {
          "indexed": false,
          "internalType": "bool",
          "name": "status",
          "type": "bool"
        }
      ],
      "name": "OfficerStatusChanged",
      "type": "event"
    },
    {
      "anonymous": false,
      "inputs": [
        {
          "indexed": true,
          "internalType": "uint256",
          "name": "landId",
          "type": "uint256"
        },
        {
          "indexed": true,
          "internalType": "address",
          "name": "from",
          "type": "address"
        },
        {
          "indexed": true,
          "internalType": "address",
          "name": "to",
          "type": "address"
        },
        {
          "indexed": false,
          "internalType": "string",
          "name": "mpesaRef",
          "type": "string"
        }
      ],
      "name": "OwnershipTransferred",
      "type": "event"
    },
    {
      "inputs": [],
      "name": "admin",
      "outputs": [
        {
          "internalType": "address",
          "name": "",
          "type": "address"
        }
      ],
      "stateMutability": "view",
      "type": "function",
      "constant": true
    },
    {
      "inputs": [
        {
          "internalType": "address",
          "name": "",
          "type": "address"
        }
      ],
      "name": "isLandOfficer",
      "outputs": [
        {
          "internalType": "bool",
          "name": "",
          "type": "bool"
        }
      ],
      "stateMutability": "view",
      "type": "function",
      "constant": true
    },
    {
      "inputs": [],
      "name": "landCount",
      "outputs": [
        {
          "internalType": "uint256",
          "name": "",
          "type": "uint256"
        }
      ],
      "stateMutability": "view",
      "type": "function",
      "constant": true
    },
    {
      "inputs": [
        {
          "internalType": "uint256",
          "name": "",
          "type": "uint256"
        }
      ],
      "name": "lands",
      "outputs": [
        {
          "internalType": "uint256",
          "name": "id",
          "type": "uint256"
        },
        {
          "internalType": "string",
          "name": "lrNumber",
          "type": "string"
        },
        {
          "internalType": "address",
          "name": "owner",
          "type": "address"
        },
        {
          "internalType": "string",
          "name": "ipfsDocHash",
          "type": "string"
        },
        {
          "internalType": "bool",
          "name": "isVerified",
          "type": "bool"
        },
        {
          "internalType": "uint256",
          "name": "createdAt",
          "type": "uint256"
        }
      ],
      "stateMutability": "view",
      "type": "function",
      "constant": true
    },
    {
      "inputs": [
        {
          "internalType": "string",
          "name": "",
          "type": "string"
        }
      ],
      "name": "lrToId",
      "outputs": [
        {
          "internalType": "uint256",
          "name": "",
          "type": "uint256"
        }
      ],
      "stateMutability": "view",
      "type": "function",
      "constant": true
    },
    {
      "inputs": [
        {
          "internalType": "uint256",
          "name": "",
          "type": "uint256"
        },
        {
          "internalType": "uint256",
          "name": "",
          "type": "uint256"
        }
      ],
      "name": "ownershipHistory",
      "outputs": [
        {
          "internalType": "address",
          "name": "from",
          "type": "address"
        },
        {
          "internalType": "address",
          "name": "to",
          "type": "address"
        },
        {
          "internalType": "uint256",
          "name": "timestamp",
          "type": "uint256"
        },
        {
          "internalType": "string",
          "name": "mpesaRef",
          "type": "string"
        }
      ],
      "stateMutability": "view",
      "type": "function",
      "constant": true
    },
    {
      "inputs": [
        {
          "internalType": "string",
          "name": "",
          "type": "string"
        }
      ],
      "name": "registeredLR",
      "outputs": [
        {
          "internalType": "bool",
          "name": "",
          "type": "bool"
        }
      ],
      "stateMutability": "view",
      "type": "function",
      "constant": true
    },
    {
      "inputs": [
        {
          "internalType": "address",
          "name": "_officer",
          "type": "address"
        },
        {
          "internalType": "bool",
          "name": "_status",
          "type": "bool"
        }
      ],
      "name": "setOfficerStatus",
      "outputs": [],
      "stateMutability": "nonpayable",
      "type": "function"
    },
    {
      "inputs": [
        {
          "internalType": "address",
          "name": "_newAdmin",
          "type": "address"
        }
      ],
      "name": "transferAdmin",
      "outputs": [],
      "stateMutability": "nonpayable",
      "type": "function"
    },
    {
      "inputs": [
        {
          "internalType": "address",
          "name": "_owner",
          "type": "address"
        },
        {
          "internalType": "string",
          "name": "_lrNumber",
          "type": "string"
        },
        {
          "internalType": "string",
          "name": "_ipfsHash",
          "type": "string"
        }
      ],
      "name": "registerLand",
      "outputs": [
        {
          "internalType": "uint256",
          "name": "",
          "type": "uint256"
        }
      ],
      "stateMutability": "nonpayable",
      "type": "function"
    },
    {
      "inputs": [
        {
          "internalType": "uint256",
          "name": "_landId",
          "type": "uint256"
        },
        {
          "internalType": "address",
          "name": "_newOwner",
          "type": "address"
        },
        {
          "internalType": "string",
          "name": "_mpesaRef",
          "type": "string"
        }
      ],
      "name": "transferOwnership",
      "outputs": [],
      "stateMutability": "nonpayable",
      "type": "function"
    },
    {
      "inputs": [
        {
          "internalType": "uint256",
          "name": "_id",
          "type": "uint256"
        }
      ],
      "name": "getLand",
      "outputs": [
        {
          "components": [
            {
              "internalType": "uint256",
              "name": "id",
              "type": "uint256"
            },
            {
              "internalType": "string",
              "name": "lrNumber",
              "type": "string"
            },
            {
              "internalType": "address",
              "name": "owner",
              "type": "address"
            },
            {
              "internalType": "string",
              "name": "ipfsDocHash",
              "type": "string"
            },
            {
              "internalType": "bool",
              "name": "isVerified",
              "type": "bool"
            },
            {
              "internalType": "uint256",
              "name": "createdAt",
              "type": "uint256"
            }
          ],
          "internalType": "struct LandRegistry.LandParcel",
          "name": "",
          "type": "tuple"
        }
      ],
      "stateMutability": "view",
      "type": "function",
      "constant": true
    },
    {
      "inputs": [
        {
          "internalType": "string",
          "name": "_lr",
          "type": "string"
        }
      ],
      "name": "getLandByLR",
      "outputs": [
        {
          "components": [
            {
              "internalType": "uint256",
              "name": "id",
              "type": "uint256"
            },
            {
              "internalType": "string",
              "name": "lrNumber",
              "type": "string"
            },
            {
              "internalType": "address",
              "name": "owner",
              "type": "address"
            },
            {
              "internalType": "string",
              "name": "ipfsDocHash",
              "type": "string"
            },
            {
              "internalType": "bool",
              "name": "isVerified",
              "type": "bool"
            },
            {
              "internalType": "uint256",
              "name": "createdAt",
              "type": "uint256"
            }
          ],
          "internalType": "struct LandRegistry.LandParcel",
          "name": "",
          "type": "tuple"
        }
      ],
      "stateMutability": "view",
      "type": "function",
      "constant": true
    },
    {
      "inputs": [
        {
          "internalType": "uint256",
          "name": "_id",
          "type": "uint256"
        }
      ],
      "name": "getOwnershipHistory",
      "outputs": [
        {
          "components": [
            {
              "internalType": "address",
              "name": "from",
              "type": "address"
            },
            {
              "internalType": "address",
              "name": "to",
              "type": "address"
            },
            {
              "internalType": "uint256",
              "name": "timestamp",
              "type": "uint256"
            },
            {
              "internalType": "string",
              "name": "mpesaRef",
              "type": "string"
            }
          ],
          "internalType": "struct LandRegistry.OwnershipRecord[]",
          "name": "",
          "type": "tuple[]"
        }
      ],
      "stateMutability": "view",
      "type": "function",
      "constant": true
    }
  ],
  "bytecode": "0x608060405234801561001057600080fd5b50600080546001600160a01b0319163390811782558152600160208190526040909120805460ff191690911790556117668061004d6000396000f3fe608060405234801561001057600080fd5b50600436106100ea5760003560e01c8063d7bce6581161008c578063f02dd53f11610066578063f02dd53f1461022d578063f1dbaccb1461024d578063f851a4401461026d578063fcb7b83c1461029857600080fd5b8063d7bce658146101d4578063e261f1e5146101dd578063e38cfca11461020257600080fd5b8063a3e0faf6116100c8578063a3e0faf61461015a578063aa0efd8a1461017d578063bf9cf4cf1461019e578063c9cf2adc146101b157600080fd5b80634dc73b7f146100ef578063716256411461013257806375829def14610147575b600080fd5b61011d6100fd366004611128565b805160208183018101805160068252928201919093012091525460ff1681565b60405190151581526020015b60405180910390f35b610145610140366004611181565b6102ab565b005b6101456101553660046111d8565b61051d565b61011d6101683660046111d8565b60016020526000908152604090205460ff1681565b61019061018b3660046111fa565b6105b1565b604051908152602001610129565b6101456101ac366004611264565b610835565b6101c46101bf3660046112a0565b610906565b6040516101299493929190611312565b61019060025481565b6101f06101eb36600461134f565b6109e5565b60405161012996959493929190611368565b610190610210366004611128565b805160208183018101805160058252928201919093012091525481565b61024061023b36600461134f565b610b3d565b60405161012991906113b8565b61026061025b36600461134f565b610d1d565b6040516101299190611434565b600054610280906001600160a01b031681565b6040516001600160a01b039091168152602001610129565b6102406102a6366004611128565b610e4f565b3360009081526001602052604090205460ff16806102d357506000546001600160a01b031633145b6102f85760405162461bcd60e51b81526004016102ef906114cb565b60405180910390fd5b6000838152600360205260408120805490910361034f5760405162461bcd60e51b815260206004820152601560248201527413185b99081c9958dbdc99081b9bdd08199bdd5b99605a1b60448201526064016102ef565b6001600160a01b0383166103a55760405162461bcd60e51b815260206004820152601960248201527f496e76616c6964206e6577206f776e657220616464726573730000000000000060448201526064016102ef565b60028101546001600160a01b038085169116036104135760405162461bcd60e51b815260206004820152602660248201527f4e6577206f776e6572206973207468652073616d652061732063757272656e746044820152651037bbb732b960d11b60648201526084016102ef565b600280820154600086815260046020818152604080842081516080810183526001600160a01b039687168082528b881682860190815242948301948552606083018c8152845460018181018755958a529690982083519690970290960180549589166001600160a01b0319968716178155955192860180549390981692909416919091179095555194820194909455905160038201906104b390826115a5565b5050506002820180546001600160a01b0319166001600160a01b03868116918217909255604051909183169087907fc6f76974206718b625c9faba8b5ae1931f1e7a6620c23458a74554aeffef13609061050e908890611665565b60405180910390a45050505050565b6000546001600160a01b031633146105475760405162461bcd60e51b81526004016102ef90611678565b6001600160a01b03811661058f5760405162461bcd60e51b815260206004820152600f60248201526e496e76616c6964206164647265737360881b60448201526064016102ef565b600080546001600160a01b0319166001600160a01b0392909216919091179055565b3360009081526001602052604081205460ff16806105d957506000546001600160a01b031633145b6105f55760405162461bcd60e51b81526004016102ef906114cb565b60068360405161060591906116b9565b9081526040519081900360200190205460ff161561066f5760405162461bcd60e51b815260206004820152602160248201527f4c616e6420616c726561647920657869737473206f6e20626c6f636b636861696044820152603760f91b60648201526084016102ef565b6001600160a01b0384166106bd5760405162461bcd60e51b8152602060048201526015602482015274496e76616c6964206f776e6572206164647265737360581b60448201526064016102ef565b600280549060006106cd836116d5565b90915550506040805160c08101825260025480825260208083018781526001600160a01b03891684860152606084018790526001608085018190524260a086015260009384526003909252939091208251815592519192919082019061073390826115a5565b5060408201516002820180546001600160a01b0319166001600160a01b039092169190911790556060820151600382019061076e90826115a5565b50608082015160048201805460ff191691151591909117905560a0909101516005909101556040516001906006906107a79086906116b9565b908152604051908190036020018120805492151560ff1990931692909217909155600254906005906107da9086906116b9565b9081526020016040518091039020819055506002547fcb7c53eba11a9a2b1e2c18089275a5cad35cfa23b1fffb1419326cad0e72b02a848685604051610822939291906116fc565b60405180910390a2506002549392505050565b6000546001600160a01b0316331461085f5760405162461bcd60e51b81526004016102ef90611678565b6001600160a01b0382166108a75760405162461bcd60e51b815260206004820152600f60248201526e496e76616c6964206164647265737360881b60448201526064016102ef565b6001600160a01b038216600081815260016020908152604091829020805460ff191685151590811790915591519182527f8a40ef3e42980aa96509d3e2e04b0c037f32d7251181d8843c0cb9b3378c99df910160405180910390a25050565b6004602052816000526040600020818154811061092257600080fd5b600091825260209091206004909102018054600182015460028301546003840180546001600160a01b03948516975093909216945092916109629061151c565b80601f016020809104026020016040519081016040528092919081815260200182805461098e9061151c565b80156109db5780601f106109b0576101008083540402835291602001916109db565b820191906000526020600020905b8154815290600101906020018083116109be57829003601f168201915b5050505050905084565b60036020526000908152604090208054600182018054919291610a079061151c565b80601f0160208091040260200160405190810160405280929190818152602001828054610a339061151c565b8015610a805780601f10610a5557610100808354040283529160200191610a80565b820191906000526020600020905b815481529060010190602001808311610a6357829003601f168201915b505050600284015460038501805494956001600160a01b03909216949193509150610aaa9061151c565b80601f0160208091040260200160405190810160405280929190818152602001828054610ad69061151c565b8015610b235780601f10610af857610100808354040283529160200191610b23565b820191906000526020600020905b815481529060010190602001808311610b0657829003601f168201915b505050506004830154600590930154919260ff1691905086565b610b45611044565b6000828152600360205260408120549003610b9a5760405162461bcd60e51b8152602060048201526015602482015274149958dbdc9908191bd95cc81b9bdd08195e1a5cdd605a1b60448201526064016102ef565b600360008381526020019081526020016000206040518060c001604052908160008201548152602001600182018054610bd29061151c565b80601f0160208091040260200160405190810160405280929190818152602001828054610bfe9061151c565b8015610c4b5780601f10610c2057610100808354040283529160200191610c4b565b820191906000526020600020905b815481529060010190602001808311610c2e57829003601f168201915b505050918352505060028201546001600160a01b03166020820152600382018054604090920191610c7b9061151c565b80601f0160208091040260200160405190810160405280929190818152602001828054610ca79061151c565b8015610cf45780601f10610cc957610100808354040283529160200191610cf4565b820191906000526020600020905b815481529060010190602001808311610cd757829003601f168201915b5050509183525050600482015460ff161515602082015260059091015460409091015292915050565b606060046000838152602001908152602001600020805480602002602001604051908101604052809291908181526020016000905b82821015610e44576000848152602090819020604080516080810182526004860290920180546001600160a01b03908116845260018201541693830193909352600283015490820152600382018054919291606084019190610db39061151c565b80601f0160208091040260200160405190810160405280929190818152602001828054610ddf9061151c565b8015610e2c5780601f10610e0157610100808354040283529160200191610e2c565b820191906000526020600020905b815481529060010190602001808311610e0f57829003601f168201915b50505050508152505081526020019060010190610d52565b505050509050919050565b610e57611044565b6000600583604051610e6991906116b9565b908152602001604051809103902054905080600003610ec05760405162461bcd60e51b8152602060048201526013602482015272131488139d5b58995c881b9bdd08199bdd5b99606a1b60448201526064016102ef565b600360008281526020019081526020016000206040518060c001604052908160008201548152602001600182018054610ef89061151c565b80601f0160208091040260200160405190810160405280929190818152602001828054610f249061151c565b8015610f715780601f10610f4657610100808354040283529160200191610f71565b820191906000526020600020905b815481529060010190602001808311610f5457829003601f168201915b505050918352505060028201546001600160a01b03166020820152600382018054604090920191610fa19061151c565b80601f0160208091040260200160405190810160405280929190818152602001828054610fcd9061151c565b801561101a5780601f10610fef5761010080835404028352916020019161101a565b820191906000526020600020905b815481529060010190602001808311610ffd57829003601f168201915b5050509183525050600482015460ff16151560208201526005909101546040909101529392505050565b6040518060c00160405280600081526020016060815260200160006001600160a01b0316815260200160608152602001600015158152602001600081525090565b634e487b7160e01b600052604160045260246000fd5b600082601f8301126110ac57600080fd5b813567ffffffffffffffff808211156110c7576110c7611085565b604051601f8301601f19908116603f011681019082821181831017156110ef576110ef611085565b8160405283815286602085880101111561110857600080fd5b836020870160208301376000602085830101528094505050505092915050565b60006020828403121561113a57600080fd5b813567ffffffffffffffff81111561115157600080fd5b61115d8482850161109b565b949350505050565b80356001600160a01b038116811461117c57600080fd5b919050565b60008060006060848603121561119657600080fd5b833592506111a660208501611165565b9150604084013567ffffffffffffffff8111156111c257600080fd5b6111ce8682870161109b565b9150509250925092565b6000602082840312156111ea57600080fd5b6111f382611165565b9392505050565b60008060006060848603121561120f57600080fd5b61121884611165565b9250602084013567ffffffffffffffff8082111561123557600080fd5b6112418783880161109b565b9350604086013591508082111561125757600080fd5b506111ce8682870161109b565b6000806040838503121561127757600080fd5b61128083611165565b91506020830135801515811461129557600080fd5b809150509250929050565b600080604083850312156112b357600080fd5b50508035926020909101359150565b60005b838110156112dd5781810151838201526020016112c5565b50506000910152565b600081518084526112fe8160208601602086016112c2565b601f01601f19169290920160200192915050565b6001600160a01b0385811682528416602082015260408101839052608060608201819052600090611345908301846112e6565b9695505050505050565b60006020828403121561136157600080fd5b5035919050565b86815260c06020820152600061138160c08301886112e6565b6001600160a01b038716604084015282810360608401526113a281876112e6565b9415156080840152505060a00152949350505050565b60208152815160208201526000602083015160c060408401526113de60e08401826112e6565b60408501516001600160a01b0316606085810191909152850151848203601f1901608086015290915061141182826112e6565b9150506080840151151560a084015260a084015160c08401528091505092915050565b60006020808301818452808551808352604092508286019150828160051b87010184880160005b838110156114bd57888303603f19018552815180516001600160a01b03908116855288820151168885015286810151878501526060908101516080918501829052906114a9818601836112e6565b96890196945050509086019060010161145b565b509098975050505050505050565b60208082526031908201527f4163636573732064656e6965643a204f6e6c79204c616e64204f666669636572604082015270081bdc8810591b5a5b88185b1b1bddd959607a1b606082015260800190565b600181811c9082168061153057607f821691505b60208210810361155057634e487b7160e01b600052602260045260246000fd5b50919050565b601f8211156115a057600081815260208120601f850160051c8101602086101561157d5750805b601f850160051c820191505b8181101561159c57828155600101611589565b5050505b505050565b815167ffffffffffffffff8111156115bf576115bf611085565b6115d3816115cd845461151c565b84611556565b602080601f83116001811461160857600084156115f05750858301515b600019600386901b1c1916600185901b17855561159c565b600085815260208120601f198616915b8281101561163757888601518255948401946001909101908401611618565b50858210156116555787850151600019600388901b60f8161c191681555b5050505050600190811b01905550565b6020815260006111f360208301846112e6565b60208082526021908201527f4163636573732064656e6965643a204f6e6c792041646d696e20616c6c6f77656040820152601960fa1b606082015260800190565b600082516116cb8184602087016112c2565b9190910192915050565b6000600182016116f557634e487b7160e01b600052601160045260246000fd5b5060010190565b60608152600061170f60608301866112e6565b6001600160a01b0385166020840152828103604084015261134581856112e656fea264697066735822122044c973c2ed19c86bfd77cfe6d71410ceb47e85713634ee19fcc4a656be7a787f64736f6c63430008140033",
  "immutableReferences": {},
  "source": "// SPDX-License-Identifier: MIT\npragma solidity ^0.8.20;\n\n/**\n * @title LandRegistry\n * @dev Manages land registration and ownership transfers on the blockchain.\n */\ncontract LandRegistry {\n\n    /* ============================\n        ROLES & ACCESS CONTROL\n    ============================ */\n    address public admin;\n    mapping(address => bool) public isLandOfficer;\n\n    modifier onlyOfficer() {\n        require(\n            isLandOfficer[msg.sender] || msg.sender == admin, \n            \"Access denied: Only Land Officer or Admin allowed\"\n        );\n        _;\n    }\n\n    modifier onlyAdmin() {\n        require(msg.sender == admin, \"Access denied: Only Admin allowed\");\n        _;\n    }\n\n    /* ============================\n        DATA STRUCTURES\n    ============================ */\n\n    struct LandParcel {\n        uint id;                  \n        string lrNumber;          \n        address owner;            \n        string ipfsDocHash;       \n        bool isVerified;\n        uint createdAt;\n    }\n\n    struct OwnershipRecord {\n        address from;\n        address to;\n        uint timestamp;\n        string mpesaRef;          \n    }\n\n    /* ============================\n        STATE\n    ============================ */\n\n    uint public landCount;\n\n    mapping(uint => LandParcel) public lands;\n    mapping(uint => OwnershipRecord[]) public ownershipHistory;\n    mapping(string => uint) public lrToId; \n    mapping(string => bool) public registeredLR;\n\n    /* ============================\n        EVENTS\n    ============================ */\n\n    event LandRegistered(\n        uint indexed landId,\n        string lrNumber,\n        address owner,\n        string ipfsHash\n    );\n\n    event OwnershipTransferred(\n        uint indexed landId,\n        address indexed from,\n        address indexed to,\n        string mpesaRef\n    );\n\n    event OfficerStatusChanged(address indexed officer, bool status);\n\n    /* ============================\n        CONSTRUCTOR\n    ============================ */\n\n    constructor() {\n        admin = msg.sender;\n        // The deployer is an officer by default\n        isLandOfficer[msg.sender] = true;\n    }\n\n    /* ============================\n        ADMIN CONTROLS\n    ============================ */\n\n    /**\n     * @dev Allows admin to add or remove officers.\n     * This fixes the \"Access Denied\" issue by letting you authorize new wallets.\n     */\n    function setOfficerStatus(address _officer, bool _status) external onlyAdmin {\n        require(_officer != address(0), \"Invalid address\");\n        isLandOfficer[_officer] = _status;\n        emit OfficerStatusChanged(_officer, _status);\n    }\n\n    /**\n     * @dev Transfer admin rights to a new address.\n     */\n    function transferAdmin(address _newAdmin) external onlyAdmin {\n        require(_newAdmin != address(0), \"Invalid address\");\n        admin = _newAdmin;\n    }\n\n    /* ============================\n        1. REGISTER LAND (MINT)\n    ============================ */\n\n    function registerLand(\n        address _owner,\n        string memory _lrNumber,\n        string memory _ipfsHash\n    ) external onlyOfficer returns (uint) {\n\n        require(!registeredLR[_lrNumber], \"Land already exists on blockchain\");\n        require(_owner != address(0), \"Invalid owner address\");\n\n        landCount++;\n\n        lands[landCount] = LandParcel({\n            id: landCount,\n            lrNumber: _lrNumber,\n            owner: _owner,\n            ipfsDocHash: _ipfsHash,\n            isVerified: true,\n            createdAt: block.timestamp\n        });\n\n        registeredLR[_lrNumber] = true;\n        lrToId[_lrNumber] = landCount;\n\n        emit LandRegistered(landCount, _lrNumber, _owner, _ipfsHash);\n\n        return landCount;\n    }\n\n    /* ============================\n        2. TRANSFER OWNERSHIP\n    ============================ */\n\n    function transferOwnership(\n        uint _landId,\n        address _newOwner,\n        string memory _mpesaRef\n    ) external onlyOfficer {\n\n        LandParcel storage land = lands[_landId];\n\n        require(land.id != 0, \"Land record not found\");\n        require(_newOwner != address(0), \"Invalid new owner address\");\n        require(land.owner != _newOwner, \"New owner is the same as current owner\");\n\n        address previousOwner = land.owner;\n\n        ownershipHistory[_landId].push(\n            OwnershipRecord({\n                from: previousOwner,\n                to: _newOwner,\n                timestamp: block.timestamp,\n                mpesaRef: _mpesaRef\n            })\n        );\n\n        land.owner = _newOwner;\n\n        emit OwnershipTransferred(_landId, previousOwner, _newOwner, _mpesaRef);\n    }\n\n    /* ============================\n        3. VIEW FUNCTIONS\n    ============================ */\n\n    function getLand(uint _id) external view returns (LandParcel memory) {\n        require(lands[_id].id != 0, \"Record does not exist\");\n        return lands[_id];\n    }\n\n    function getLandByLR(string memory _lr) external view returns (LandParcel memory) {\n        uint id = lrToId[_lr];\n        require(id != 0, \"LR Number not found\");\n        return lands[id];\n    }\n\n    function getOwnershipHistory(uint _id)\n        external\n        view\n        returns (OwnershipRecord[] memory)\n    {\n        return ownershipHistory[_id];\n    }\n}",
  "sourcePath": "/home/lee-limo/Documents/Projects/LandRegistryKenya/Truffle/contracts/Land.sol",
  "compiler": {
    "name": "solc",
    "version": "0.8.20+commit.a1b79de6.Emscripten.clang"
  },
  "schemaVersion": "3.4.16",
  "updatedAt": "2026-04-23T20:52:13.750Z",
  "networkType": "ethereum",
  "devdoc": {
    "details": "Manages land registration and ownership transfers on the blockchain.",
    "kind": "dev",
    "methods": {
      "setOfficerStatus(address,bool)": {
        "details": "Allows admin to add or remove officers. This fixes the \"Access Denied\" issue by letting you authorize new wallets."
      },
      "transferAdmin(address)": {
        "details": "Transfer admin rights to a new address."
      }
    },
    "title": "LandRegistry",
    "version": 1
  },
  "userdoc": {
    "kind": "user",
    "methods": {},
    "version": 1
  }
}